:020000040800F2
:10000000000500209D0100083B1B00085516000854
:10001000391B0008E1080008211C0008000000004E
:100020000000000000000000000000003F1B00086E
:1000300079090008000000003D1B0008411B000872
:10004000B7010008B7010008B7010008B7010008B0
:10005000B7010008B7010008B7010008B7010008A0
:10006000B7010008B7010008B7010008B701000890
:10007000B7010008B7010008B7010008B701000880
:10008000B7010008B7010008B7010008B701000870
:10009000B7010008B7010008B70100087D09000892
:1000A000B7010008B7010008B7010008B701000850
:1000B000B7010008B7010008B7010008B701000840
:1000C000B7010008B7010008B7010008B701000830
:1000D000B7010008B7010008B7010008B701000820
:1000E000B7010008B7010008B7010008B701000810
:1000F000B7010008B7010008B7010008B701000800
:10010000B7010008B7010008B7010008B7010008EF
:10011000B7010008B7010008B7010008B7010008DF
:10012000B7010008B7010008B7010008B7010008CF
:10013000B7010008B7010008B7010008B7010008BF
:10014000B7010008B7010008B7010008B7010008AF
:10015000B7010008B7010008B7010008B70100089F
:10016000B7010008B7010008B7010008B70100088F
:10017000B7010008B7010008B7010008000000003F
:10018000B7010008B7010008DFF80CD000F0F0FA62
:1001900000480047BD2900080005002006488047A8
:1001A00006480047FEE7FEE7FEE7FEE7FEE7FEE75C
:1001B000FEE7FEE7FEE7FEE7CD1B00088901000829
:1001C0002DE9F05F0546002092469B46884606468C
:1001D000814640241BE0284641464746224600F01F
:1001E00014F953465A46C01A914110D31146184685
:1001F000224600F0FBF82D1A67EB01084F46224615
:100200000120002100F0F2F817EB00094E41201EFA
:10021000A4F10104DFDC484631462A464346BDE8E6
:10022000F09F40EA01039B0703D009E008C9121FB1
:1002300008C0042AFAD203E011F8013B00F8013BA0
:10024000521EF9D27047D2B201E000F8012B491ECC
:10025000FBD270470022F6E710B513460A46044663
:100260001946FFF7F0FF204610BD2DE9FE4F81EA49
:10027000030404F0004421F0004100944FF0000B0F
:1002800023F0004350EA01045ED052EA03045BD03D
:10029000C3F30A54C1F30A552C44A4F2F334019475
:1002A000A0FB0254C1F3130141F48011C3F3130303
:1002B00043F4801301FB024400FB034E840A970AB7
:1002C00044EA815447EA8357A4FB076802958D0AE4
:1002D00005FB07854FEA932C04FB0C542705029D70
:1002E0004FEA065847EA1637B5EB08056EEB070CE0
:1002F000870E920E47EA811742EA8312A7FB02019A
:10030000B6EB0B0164EB00042B0D43EA0C335E18D3
:1003100044EB1C50DA465146E7FB0201C5F31304D7
:100320004FEA0B3343EA14534FEA0432019C43EA89
:100330000603A4F10C040294009CCDE900B400F083
:1003400083F803B0BDE8F08F00200146F9E70EB551
:1003500040F2334102910021CDE900110A460B46DB
:1003600000F072F803B000BDC1F30A5210B5C1F33A
:10037000130140F2FF3341F480119A4201DA002068
:1003800010BD40F233439A42A2F2334203DC5242A0
:1003900000F03BF810BD904010BD00F0004230F07E
:1003A00000400AD0C10D01F56071C0F3160042EAA9
:1003B0000151C208400711437047002001467047B1
:1003C00030B50B46014600202022012409E021FA25
:1003D00002F59D4205D303FA02F5491B04FA02F522
:1003E0002844151EA2F10102F1DC30BD202A04DBF5
:1003F000203A00FA02F1002070479140C2F1200338
:1004000020FA03F3194390407047202A04DB203A76
:1004100021FA02F00021704721FA02F3D040C2F124
:100420002002914008431946704710B5141E73F11D
:10043000000408DA401C41F1000192185B411A43A4
:1004400001D120F0010010BD2DE9F04D92469B46F0
:1004500011B1B1FA81F202E0B0FA80F22032904696
:10046000FFF7C4FF04460F4640EA0A0041EA0B01C9
:1004700053465A46084313D0114653EA010019D097
:10048000C8F140025046FFF7C0FF05460E465046F1
:1004900059464246FFF7AAFF084305D0012004E071
:1004A00020463946BDE8F08D0020054346EAE07657
:1004B0002C4337430A986305E40AA0EB08000022A6
:1004C000FD0A44EA47540A3002D500200146E9E714
:1004D000010510196941DDE9084500196941BDE8C8
:1004E000F04DA2E72DE9FE4F804681EA0300C00FE0
:1004F0000C46009021F0004123F00045B8EB0200CB
:10050000A94105D24046214690461C460B4602466C
:1005100023F00040104347D0270DC7F30A00C3F370
:100520000A510290401A019040286BDAC3F313007D
:1005300040F4801B0098924620B10023D2EB030ABE
:1005400063EB0B0B01985946C0F140025046FFF790
:100550004DFF06460D4650465946019A00F01AF9DD
:1005600010EB08006141002487EA115284EAE77326
:100570001A4340D0009A62B3019A012A4FEA075207
:1005800015DC001B61EB02014FF0004202EA07524A
:10059000CDE90042001C41F5801132462B46FFF7A1
:1005A00053FF03B0BDE8F08F40462146F9E7001B3A
:1005B00061EB0201001C41F5801300185B4120181B
:1005C000A2F5001747EB030140EAD570B6196D415B
:1005D00011E06D084FEA360645EAC0754FEA07524A
:1005E000001B61EB0201001C41F5801149084FEA34
:1005F00030000019514132462B4603B0BDE8F04FA0
:10060000FFF713BF0098012240000023D0EB020245
:1006100063EBE073009821464FEAE074B8EB00000A
:1006200061EB0401E9E783F000435BE781F00041FF
:1006300058E72DE9F04D81EA030404F0004B21F066
:10064000004514464FF0000A23F0004150EA05022D
:1006500020D054EA01021DD0C5F30A570246C5F363
:100660001303C1F31300C1F30A5640F4801543F499
:100670008013A7EB0608101BD64608F2FD3873EB73
:10068000050002D308F1010801E092185B41B8F1BE
:10069000000F03DA00200146BDE8F08D00204FF482
:1006A0008011064684460EE0171B73EB050705D341
:1006B000121B63EB050306434CEA010C49084FEAA1
:1006C000300092185B4150EA0107EDD152EA030075
:1006D00012D082EA040083EA0501084305D0101B0A
:1006E000AB4106D20122002306E000224FF0004376
:1006F00002E06FF0010253101AEB06004CEB0851B8
:1007000010EB0A0041EB0B01BDE8F04DFFF78DBE89
:10071000C1F30A52C1F3130140F2FF3341F48011D7
:100720009A4202DA00200146704740F233439A426F
:10073000A2F2334202DC5242FFF767BEFFF756BE19
:1007400030B5041E71F1000404DB4FF00044404258
:1007500064EB0101141E73F1000405DB1C464FF02D
:100760000043524263EB0403994208BF904230BDFC
:10077000064C074D06E0E06840F0010394E80700EE
:1007800098471034AC42F6D3FFF702FD542B000813
:10079000742B0008202A06DBCB17203A41FA02F01E
:1007A00043EAE07306E041FA02F3D040C2F12002CE
:1007B0009140084319467047464910B54A6822F4EB
:1007C00040324A604A6843681A434A6001684A688E
:1007D00022F480724A6001684A68036942EA03228F
:1007E0004A6001684A6822F040724A6001684A68BB
:1007F00083681A434A6001688A6822F400628A604A
:1008000001688A68C3681A438A60816A6FF07062FF
:10081000D14201688A6822F070628A6001688A6841
:100820000CD0836A1A438A6001688A6822F04052B9
:100830008A6001688A68C36A1A4301E022F0405264
:100840008A6001688A6822F002028A6001688A6808
:10085000037E42EA43028A6090F820100029016872
:100860004A680FD042F400624A6001684A6822F484
:1008700060424A6001684A68174C436A04EB43339C
:100880001A4301E022F400624A600168CA6A22F455
:100890007002CA620168CA6A838B104C04EB03536E
:1008A0001A43CA6201688A6822F400728A60016889
:1008B0008A6890F8303042EA43228A6001688A6888
:1008C00022F480628A6001688A68406942EA802076
:1008D000886010BD0023014000E0FFFF0000F0FF32
:1008E000FEE7000010B502F019F9002202210548C8
:1008F00000F039FB44F2506000F028F8BDE81040E9
:1009000002F0FEB8000002400E48016821F080713C
:100910000160016841F0807101600B48016821F0BD
:1009200001010160016841F00101016000214160A5
:1009300000BF00BF00BF406808B100207047012021
:1009400070470000FCED00E0001000E031B5084DFC
:100950006C6800F095FC0749B0FBF1F00099484342
:10096000009068680099001B8842FAD338BD0000E7
:10097000001000E040420F007047000000B5A3B037
:100980003422124911A8FFF74CFC1048416B1E910C
:10099000816BC26BCDE91F12016C2191406C2290DA
:1009A0000B490EAB07C983E80700382215A9684632
:1009B000FFF737FC0DF1440C9CE80F0001F0C4FD7B
:1009C00023B080205DF804EB00F0E4B9480000207B
:1009D0009000002078B50024009490F83C20012A73
:1009E00019D0012280F83C200A6807230568092AEB
:1009F00013D9EE680A3A02EB420293409E43EE603E
:100A00000B788A680A3B03EB43039A400368DD686E
:100A10002A43DA6010E0022078BD2E6902EB420220
:100A200093409E432E610B788A6803EB43039A4000
:100A300003681D692A431A614A681F23072A13D2D3
:100A400005686E6B521E02EB820293409E436E63FA
:100A50000B790A885B1E92B203EB83039A4003680A
:100A60005D6B2A435A6327E005680D2A12D22E6B6C
:100A7000D21F02EB820293409E432E630B790A88B9
:100A8000DB1F92B203EB83039A4003681D6B2A437A
:100A90001A6311E0EE6A0D3A02EB820293409E4324
:100AA000EE620B790A880D3B92B203EB83039A4006
:100AB0000368DD6A2A43DA62164B0568144A9D42D0
:100AC00006D10D68122D03D1556845F48005556097
:100AD00005689D4218D10B68102B01D0112B13D142
:100AE000536843F400035360096810290CD10A4984
:100AF0000A4A0968B1FBF2F101EB8101490000E00B
:100B0000491E00910029FBD180F83C40002078BDAF
:100B100000230140002001403000002040420F002F
:100B20000068C06C704770B504004FF0000503D03A
:100B3000206C002610B107E0012070BD204600F0B7
:100B40001DF8666484F83C60206CC00610D4206CEC
:100B500020F4885040F0020020642046FFF72CFE6D
:100B60006664206C20F0020040F00100206400E088
:100B7000012584F83C60284670BD000010B586B0A1
:100B8000044614216846FFF765FB11492068884236
:100B90001CD110480021026842F480720260006893
:100BA00000F4807005900B481438026842F002028D
:100BB0000260006800F00200059001200090032010
:100BC000CDE901016946044800F0F0F806B010BD17
:100BD0000020014044380240000402402DE9F04169
:100BE000044600680D4681684FF0000749050BD5A3
:100BF0008068C00508D5206C40F02000206484F88F
:100C00003C700120BDE8F08100F0B2F906460FE02B
:100C1000681C0DD025B100F0ABF9801BA84207D9A4
:100C2000206C40F00400206484F83C700320E9E765
:100C3000206800688007EBD521686FF0120008601B
:100C4000206C40F4007020642068816811F0405FDF
:100C500013D1217E89B9C16A11F4700F02D0806866
:100C600040050AD4206C20F480702064206CC004FD
:100C700003D4206C40F0010020640020C2E7000093
:100C800018B50021009190F83C20012A07D00122DC
:100C900080F83C2002689368DB0702D011E0022054
:100CA00018BD936843F0010393602A4A2A4B1268E7
:100CB000B2FBF3F202EB420200E0521E0092002A65
:100CC000FBD102689368DB0741D0036C40F20164FA
:100CD000A34343F48073036453685B0505D5036C39
:100CE00023F4005343F480530364036CDB0404D502
:100CF000436C23F00603436400E0416480F83C1039
:100D000016496FF02203136049680068CA06144947
:100D100006D088421BD1816811F0405F13D016E0E5
:100D20008842F8D00F4A904203D1D1F80423D2066A
:100D3000F1D00D4A90420AD1D1F8041301F01F01FD
:100D40001029E8D303E0816841F0804181600020F0
:100D500018BD00003000002040420F000023014079
:100D600000200140002101400022014070B50446EE
:100D700000F0FEF80546601C02D0044800780444E8
:100D800000F0F6F8401BA042FAD370BD240000200A
:100D900070470000044910B50A68024202D008609A
:100DA000FFF7F6FF10BD0000143C01402DE9F84F9D
:100DB000DFF87CB100224FF001084FF0030A4FF03A
:100DC0000F090BF1040E00BF0B6808FA02F4234070
:100DD000A3426ED14D68022D01D0122D0ED1D5083F
:100DE00000EB850CDCF820505607F70E09FA07F6E1
:100DF000B5430E69BE402E43CCF82060066855000E
:100E00000F790AFA05FC07F0030726EA0C06AF4043
:100E1000374307604E68012E05D0022E03D0112EF5
:100E200001D0122E0ED18668CF6826EA0C06AF409C
:100E3000374387604668A6430C79C4F30014944096
:100E400034434460C6688C6826EA0C06AC403443E0
:100E5000C4604C68E40065D5364C256845F480458F
:100E60002560246822F0030504F480440094324C89
:100E70002E19D6F8084895072F0F09FA07F5AC4345
:100E80002E4DA84201D1002524E02D4DA84201D1CC
:100E900001251FE02B4DA84201D102251AE02A4D61
:100EA000A84201D1032515E0284DA84202D104250E
:100EB00010E037E0264DA84201D105250AE0254D76
:100EC000A84201D1062505E0234DA84201D10725FE
:100ED00000E00825BD402543C6F80858DBF800406F
:100EE0005D464E689C43F60300D51C432C60DEF83B
:100EF000004075464E689C43B60300D51C432C60E9
:100F00000B4D08352C684E689C43F60200D51C43F7
:100F10002C60074D0C352C684E689C43B60200D5FA
:100F20001C432C60521C102AFFF44EAFBDE8F88F12
:100F3000003C0140443802400030014000000240C3
:100F40000004024000080240000C02400010024071
:100F50000014024000180240001C024000690840D2
:100F600000D0012070470AB1816170470904FBE796
:100F700001488068704700002400002070B504001C
:100F800011D021684CF6CC400860216845F25550DC
:100F90000860D4E9000141602168A0688860FFF71B
:100FA000E7FF054609E0012070BD00BFFFF7E0FF45
:100FB000401B302801D9032070BD2068C06800287C
:100FC000F4D121684AF6AA200860002070BD0068AC
:100FD0004AF6AA210160002070470000024881689B
:100FE0000278114481607047240000200B4810B53E
:100FF000016841F400710160016841F480610160A1
:10100000016841F480710160032000F06FF8002056
:1010100000F006F800F024F8002010BD003C02406B
:1010200070B50D4D04464FF47A712878B1FBF0F09D
:101030000A490968B1FBF0F000F0F8FA48B9102C41
:1010400007D200222146501E00F030F800206C60CC
:1010500070BD012070BD0000240000203000002081
:101060000A4808B5016841F480410160006800F455
:10107000804000900548001F016841F080510160E8
:10108000006800F08050009008BD00004438024025
:10109000002809DB00F01F02012191404009800077
:1010A00000F1E020C0F8001170470000F0B40E4BD2
:1010B0001B680C46C3F30223C3F10705042D00D9B6
:1010C0000425191D072901D2002300E0DB1E01269B
:1010D00006FA05F1491E214099409E40761E1640B1
:1010E0003143F0BC00F0B2BD0CED00E0064900F069
:1010F000070208684FF6FF03184040EA0220034A3F
:1011000010430860704700000CED00E00000FA0595
:101110002DE9F0470E46050065D0DFF81481D8F8B8
:101120000000F7B200F00F00B04207D288F800705C
:10113000D8F8000000F00F00B04254D128683D4CB0
:10114000810712D5400703D5206840F4E0502060A5
:101150002878000703D5206840F4604020602068AC
:10116000A96820F0F000084320602878C0072DD03F
:10117000304968680839012812D0022813D00328A2
:1011800011D00968890700292DDA216821F00301AF
:1011900001432160FFF7ECFE814641F2883A0EE000
:1011A00009688903EFE709688901ECE7FFF7E0FECA
:1011B000A0EB0901514502D90320BDE8F087206862
:1011C000696800F00C00B0EB810FEFD1D8F8001087
:1011D000404601F00F01B14207D90770006800F0E6
:1011E0000F00B04201D00120E7E72878400705D57D
:1011F0002068E96820F4E050084320602878000760
:1012000006D52068296920F4604040EAC1002060CA
:1012100000F04CF82168084AC1F30311515CC84042
:10122000064908600020FFF7FBFE0020C5E700002C
:10123000003C0240083802403C2B000830000020EF
:101240000F2202600C4A136803F003034360136823
:1012500003F0F0038360136803F4E053C360126883
:101260004FF4E05303EAD20202610448006800F040
:101270000F0008607047000008380240003C024040
:10128000014800687047000030000020044805490C
:1012900000680968044AC1F38221515CC840704764
:1012A00030000020083802404C2B0008154810B5CB
:1012B000006810F00C02144813D01449042A0FD00F
:1012C000082A0ED10F4C241F2268236802F03F0227
:1012D0005B0207D52068C0F38810A0FB010106E07F
:1012E000084610BD2168C1F38811A1FB000100234D
:1012F000FEF766FF2168C1F30141491C4900B0FBBC
:10130000F1F010BD083802400024F40040787D015F
:101310002DE9F84F050076D02878DFF8F8B2BE4CFA
:10132000C00749D0DBF800105846C1F381010129FC
:1013300008D00068C0F3810002280AD1201D00688F
:10134000400206D52068800336D568680028E2D0C0
:1013500032E06868B0F5803F10D0B0F5A02F20686B
:1013600010D020F480302060206820F4802020609D
:101370006868A0B1FFF7FCFD06460CE0206840F469
:101380008030F4E740F480202060F7E7FFF7F0FDBD
:10139000801B642873D820688003F7D50CE0FFF722
:1013A000E7FD064605E000BFFFF7E2FD801B64286D
:1013B000F0D820688003F7D42878DFF860828007AF
:1013C0004FF000093ED5DBF80010584611F00C0F25
:1013D00009D00068C0F3810002280BD18D48001F9E
:1013E0000068400206D42068800715D5E868012807
:1013F00009D111E0E868B8B10120C8F80000FFF792
:10140000B7FD064605E002E1FFF7B2FD801B0228AA
:10141000C0D820688007F7D52068296920F0F80037
:1014200040EAC10020600DE0C8F80090FFF7A0FD81
:10143000064604E0FFF79CFD801B02281FD82068A9
:101440008007F7D42878000722D5724E744869695E
:101450006C3671B101210160FFF78AFD074604E097
:10146000FFF786FDC01B022809D830688007F7D532
:101470000EE0C0F80090FFF77BFD074605E083E033
:10148000FFF776FDC01B02287ED830688007F7D4AE
:101490002878400768D5DFF87CA100270AF1380AD0
:1014A000DAF80000C0000BD4DAF8001041F08051E7
:1014B000CAF80010DAF80000012700F08050009010
:1014C000584E3068C00510D4306840F480703060E9
:1014D000FFF74EFD009005E0FFF74AFD0099401A26
:1014E000022851D83068C005F6D54A4EA86868363B
:1014F00001280FD00528306810D020F0010030609E
:10150000306820F004003060A868B8B1FFF730FD03
:1015100000900FE0306840F00100F4E740F0040074
:101520003060F7E7FFF724FD0099411A41F2883057
:10153000814264D830688007F4D50EE0FFF718FDCB
:10154000009007E0FFF714FD0099411A41F288303E
:10155000814254D830688007F4D42FB1DAF80010F3
:1015600021F08051CAF80010A869C0B3DBF8001060
:10157000C1F3810102294AD00228484607D0C8F8A1
:101580006000FFF7F5FC00E039E005463AE0474629
:10159000C8F86000FFF7ECFC064604E0FFF7E8FC43
:1015A000801B02282BD820688001F7D4D5E90701D9
:1015B0000843A96A1C4A490802EB01416A6A41EAE8
:1015C0008211084395F82C1040EA01611148001F70
:1015D000016001203866FFF7CBFC054605E014E00A
:1015E000FFF7C6FC401B022809D820688001F7D508
:1015F0000BE000BFFFF7BCFC401B022802D9032010
:10160000BDE8F88F20688001F4D40020F8E70120BD
:10161000F6E7000008380240003802400000474268
:10162000800E4742007000400000FFFF10B5401ED2
:10163000B0F1807F01D3012010BD4FF0E024606144
:101640000F21601700F002FB0020A061072020613D
:10165000002010BDFEE7802000F0A2B9C02000F0FD
:101660009FB9000000B587B005A96846FFF7E8FDFF
:101670000398E8B3FFF70AFE5FEA4000FEF767FE53
:101680009FED1F1B53EC112BFEF7EFFDFEF76CFED9
:101690001D490A6842F002020A601C490A6822F0E9
:1016A00010020A600A6822F001020A600A6822F049
:1016B00004020A600A6842F008020A6013492831ED
:1016C000401E08600920091D0860104901201431DE
:1016D0000860081F016821F0010101601420FFF774
:1016E00045FB382000F05CF90C2000F059F900E0CF
:1016F00003E000F0B9F807B000BDFFF7C7FDBDE794
:101700008DEDB5A0F7C6B03E403802400004004061
:1017100070B50546002403E0FF2000F051F9641C79
:10172000AC42F9DB70BD00001FB510EE100AFEF7E9
:1017300034FE41EC100B05A153EC102B684600F071
:1017400071FA684600F099F81FBD0000252E316639
:10175000000000001FB5024603A1684600F062FACF
:10176000684600F08AF81FBD2564000010B50446E5
:101770000A2190FBF1F001FB104094FBF1F10528E8
:1017800000DB491C0B295ED2DFE801F006080F14CC
:10179000191E1E29343F4A002BA003E00120FFF749
:1017A000B7FF2BA000F069F811E00320FFF7B0FFAE
:1017B00029A0F7E70520FFF7ABFF26A0F2E70620F8
:1017C000FFF7A6FF26A0EDE70720FFF7A1FF2046C1
:1017D000FFF7C0FFBDE8104022A000F04EB8072080
:1017E000FFF796FF2046FFF7B5FF1EA000F045F873
:1017F000012022E00720FFF78BFF2046FFF7AAFF1A
:1018000018A000F03AF8032017E00720FFF780FF48
:101810002046FFF79FFF13A000F02FF804200CE0F4
:10182000642C0ED05FF00700FFF772FF2046FFF731
:1018300091FF0CA000F021F80620BDE81040FFF752
:1018400067BF0620F0E710BD2020202020202000C8
:101850002020202020200000202020200000000048
:10186000200000002500000010B5012000F098F8CD
:10187000BDE810400320FFF779BA70B50546002493
:1018800005E000F09DF8641CE4B2102C02D2285D43
:101890000028F6D170BD00002DE9F04F09AC94E8A6
:1018A000E05F0B4C606121806280A361A580E680CF
:1018B0002781A4F80A80C4F81C90A4F80CA0A4F80E
:1018C0000EB0A4F810C0A4F812E0BDE8F08F00003C
:1018D000000000202DE9F0412F4C054600F00102E8
:1018E000A188A069FFF73FFB05F00202E188A0692B
:1018F000FFF739FB05F004022189A069FFF733FBEC
:1019000005F008026189A069FFF72DFBC5F30012FD
:10191000A189E069FFF727FB022000EA1512E1899F
:10192000E069FFF720FB042000EA1512218AE06934
:10193000FFF719FB082000EA1512618AE069FFF73A
:1019400012FB012261886069FFF70DFB134F09202C
:101950003860124E1C3E306820F0010030600F4DA0
:101960002C3D286840F0010028603068C007FCD09A
:10197000002261886069FFF7F6FA3B203860306822
:1019800020F001003060286840F0010028603068D5
:10199000C007FCD0BDE8F081000000202C0400400E
:1019A00010B5064B0446002219885869FFF7DBFA88
:1019B0002046BDE81040FFF78DBF0000000000206A
:1019C00010B5064B0446012219885869FFF7CBFA77
:1019D0002046BDE81040FFF77DBF0000000000205A
:1019E0007FB5002411480094019402940E49039499
:1019F000C0E9001484600461047680F820400C493A
:101A0000C0E90A140125C561C46080F83040456111
:101A1000FFF789F80820CDE90005694602940348DC
:101A2000FEF7D8FF7FBD00000020014048000020E5
:101A30000100000F2DE9F04387B014216846FEF73E
:101A400009FC37480024016841F001010160016888
:101A500001F001010591016841F002010160016896
:101A600001F002010591016841F010010160016877
:101A700001F010010591016841F008010160006862
:101A8000284F00F008004FF2040505900022294677
:101A90003846FFF768FADFF890802E1100223146B1
:101AA0004046FFF760FADFF88490002203214846A1
:101AB000FFF759FA0220CDE9000469461C48029458
:101AC000FFF774F900950125CDE9015469463846C0
:101AD0000394FFF76BF9802000901648CDE90104CC
:101AE00069464846FFF762F90096CDE90154694618
:101AF00040460394FFF75AF903200090CDE90154C2
:101B0000694648460394FFF751F900221146172011
:101B1000FFF7CCFA1720FFF7BBFA07B0BDE8F08358
:101B20003038024000040240000C02400010024025
:101B30000000024000001110FEE770477047704738
:101B4000FFF74CBA10B592B030216846FEF782FB21
:101B500014210CA8FEF77EFB1A480021026842F00F
:101B600080520260006800F08050119016480268B0
:101B700042F4804202600068102200F4804011901C
:101B80000A2000900120CDE903020224CDE90504DA
:101B90000820CDE907104020CDE9090404200B906E
:101BA0006846FFF7B5FB0F20CDE90C04B0200E907E
:101BB000E0020F90109000210CA8FFF7A9FA12B0D4
:101BC00010BD00004038024000700040104801681D
:101BD00041F4700101600F48016841F001010160AA
:101BE0000C4A00210832116002680B4B1A40026057
:101BF000031D0A4A1A60026822F480220260054826
:101C00000C300160024958068039086070470000B6
:101C100088ED00E000380240FFFFF6FE103000249F
:101C2000FEE700000FB4084B10B504A902AA039800
:101C300000F0EEF8044602A9002000F080FC2046E7
:101C400010BC5DF814FB00003F2500080907090ED1
:101C5000002804DB00F1E02080F80014704700F059
:101C60000F0000F1E02080F8141D704702E008C862
:101C7000121F08C1002AFAD170477047002001E006
:101C800001C1121F002AFBD1704700002DE9FF5F40
:101C900082B00021DDE90430020DDDF840B00343DD
:101CA00018D044F61050A2F2FF3242431514119896
:101CB00001281FD0A5EB0B00401C5FEA000A4FF083
:101CC00000064E4FDFF83891B046504615D5CAF1A0
:101CD000000413E0119801244AA3012801D16FEAFE
:101CE0000B010298119AC0E90031C0E9024206B026
:101CF000BDE8F09FCBF10000DFE704460021404A39
:101D0000491842EB0450CDE9001012E0E00707D07B
:101D100032463B4640464946FEF7A7FA804689468A
:101D200032463B4610461946FEF79FFA06460F46D6
:101D30006410002CEAD1DDE90401DDE90023BAF1E9
:101D4000000F06DAFEF791FA42464B46FEF78DFA8F
:101D500005E0FEF76EFC42464B46FEF76AFC044681
:101D60000E460022284BFEF7EBFC03D84FF0FF3065
:101D7000014607E00022254B20463146FEF7B2FB24
:101D8000FEF7C6FC102409E0002C0ADB0A2200231F
:101D9000FEF716FA039B30321A55641E50EA010210
:101DA000F2D1641C039AC4F111031444119A012A5C
:101DB00003D0012208430DD10AE0084304D00020DB
:101DC0004FF0110B119072E7A3EB0B056D1E0DE0A8
:101DD0005B4504DD4FF0000205F1010504E003DA84
:101DE0004FF00002A5F10105002AECD002981199EC
:101DF000C0E90231C0E9004579E700000000144065
:101E00000000F03F300000000000F0430000E03F21
:101E10002DE9FF4F95B09B468946064600250FE207
:101E2000252877D100242746F84A0121059400E0AF
:101E3000044316F8013F203B01FA03F01042F7D1AA
:101E400030782A2811D06FF02F033078A0F13002BB
:101E5000092A16D8059A44F0020402EB820203EB29
:101E600042021044761C0590EFE759F8042B0592C6
:101E7000002A03DA504244F40054059044F002046E
:101E8000761C30782E2816D116F8010F44F0040481
:101E90002A280DD06FF02F023078A0F13003092BE3
:101EA00009D807EB870302EB4303C718761CF3E757
:101EB00059F8047B761C30786C280FD006DC4C284F
:101EC00017D068280DD06A2814D104E0742810D0E7
:101ED0007A280FD10DE044F400140AE044F4801491
:101EE00001E044F440147278824202D104F5801477
:101EF000761C761C307866280BD013DC582877D0F7
:101F000009DC002875D04528F6D04628F4D04728AB
:101F10001AD19DE118E0632835D0642879D065286E
:101F200012D195E1702873D008DC6728F1D06928B8
:101F30006FD06E280DD06F2806D1B5E073282CD055
:101F4000752875D0782874D05A46179990476D1C1B
:101F500075E1C4F30250022809D003280DD0D9F846
:101F6000001004280DD00D6009F1040967E1D9F8CB
:101F70000010EA17C1E90052F6E7D9F800100D8009
:101F8000F2E70D70F0E719F8041B8DF8001000203F
:101F90008DF80100EA46012003E059F804AB4FF048
:101FA000FF3061074FF0000102D40DE008F101019C
:101FB0008846B9420FDA8045F8DB1AF80810002984
:101FC000F4D108E008F1010188468142FADB1AF8F1
:101FD00008100029F6D105985B46A0EB08072146BA
:101FE0003846179A00F094FA284400EB080507E0F9
:101FF0004DE029E10DE01AF8010B5A461799904778
:10200000B8F10108F7D25B4621463846179A13E12A
:1020100042E00A220092C4F302524FF0000A022A60
:1020200008D059F804CB032A4FEAEC710AD00DE02E
:1020300029E02AE009F1070121F00702F2E802C1D4
:10204000914609E00FFA8CFC4FEAEC71042A03D1A7
:102050004FFA8CFC4FEAEC71002907DA0A4600219E
:10206000DCF1000C61EB02012D2202E0220504D517
:102070002B228DF80420012203E0E20701D0202268
:10208000F7E7904659E00A2102E010220DE0102106
:102090004FF0000A00910BE010224FF0000A44F0CC
:1020A00004040827009203E008224FF0000A00927F
:1020B000C4F30252022A05D059F804CB0021032AA6
:1020C00008D009E009F1070121F00702F2E802C196
:1020D000914605E01FFA8CFC042A01D10CF0FF0C9C
:1020E0004FF00008220728D5702806D0009B83F007
:1020F000100353EA0A0305D00EE040228DF80420B5
:10210000012208E05CEA010206D030228DF80420AA
:102110008DF8050002229046009B83F0080353EAE5
:102120000A030AD15CEA010201D1620705D5302217
:102130008DF804204FF001087F1E582804D034A0E9
:1021400003900EA802900DE036A0F9E753466046D2
:10215000009AFEF735F884460398825C0298401E88
:10216000029002705CEA0100F0D1029806A9081AF8
:1021700000F1200A600702D524F4803400E0012732
:10218000574502DDA7EB0A0000E0002000EB0A0142
:10219000009005984144401A0590E00306D45B4640
:1021A0002146179A059800F0B3F90544002706E088
:1021B00001A85A46C05D179990476D1C7F1C474582
:1021C000F6DBE0030CD55B462146179A059800F034
:1021D0009FF9054404E030205A46179990476D1C3A
:1021E0000099481E00900029F5DC08E00298029949
:1021F0005A460078491C0291179990476D1CBAF114
:102200000001AAF1010AF1DC65E1000009280100E2
:10221000303132333435363738396162636465665C
:10222000000000003031323334353637383941421E
:10223000434445460000000000F058F90544761C70
:10224000307800287FF4ECAD19B02846BDE8F08F57
:10225000620700D4062709F1070222F0070CFCE808
:102260000223E14603F000485FEA080C02D00FF2B7
:10227000702C0DE05FEA045C02D50FF2682C07E0D9
:102280005FEAC47C02D00FF2602C01E0AFF2700C68
:102290004FF0FF3823F00043CDF850C065280CD034
:1022A00006DC452809D046281DD047283DD13DE011
:1022B000662818D067287ED138E00021112F01DB75
:1022C000112000E0781CCDE9000106A90EA8FFF757
:1022D000DDFCDDE90F010E9A03910021009207F168
:1022E000010A04914DE04FF000400097CDE9011044
:1022F00006A90EA8FFF7CAFCDDE90F0203920E9BA8
:1023000011990022DDF80CA00093049211B9791CF8
:1023100000EB010AB7EB0A0004D4C0F1FF3007F16B
:10232000010A0490AAEB0700019044E0012F00DAB3
:1023300001270021112F01DD112000E03846CDE9F1
:10234000000106A90EA8FFF7A1FCDDE90F010E9A16
:102350000391002104910092BA4621070CD40399FD
:10236000514500DA8A46BAF1010F05DD009AAAF15B
:102370000101515C302908D0B84202DA10F1040F93
:1023800006DA0121CDE9011015E0AAF10101E9E722
:10239000002805DC049901440491AAEB000102E045
:1023A000411C514500DD8A460499401A401C0190A9
:1023B0004FF000400290200704D40198504501DB03
:1023C000CDF8048000208DF84F0002980DF14F07E2
:1023D000B0F1004F25D02B200E9002984FF002084C
:1023E00000280CDA404202902D200E9007E00A21CE
:1023F0000298FDF7E5FF3031029007F8011DB8F1B2
:102400000001A8F10108F2DC02980028EFD1791E42
:102410000E980870307800F0200040F0450007F872
:10242000020D12A8C01B00F107081498007800B133
:10243000012000EB0A01019801EBE071059841448D
:10244000401A401E0590E00306D45B462146179AC9
:10245000059800F05DF805441498007818B15A46C4
:10246000179990476D1CE00324D55B462146179AC7
:10247000059800F04DF805441CE00498002807DB9F
:10248000DDE90301884203DD0098405C179901E013
:10249000179930205A469047049805F10105401CD1
:1024A00004900198401E019004D12E205A4617999D
:1024B00090476D1CBAF10001AAF1010ADDDC05E0CC
:1024C00017F8010B5A46179990476D1CB8F1000197
:1024D000A8F10108F4DC5B462146179A0598ABE6A3
:1024E0002D0000002B000000200000002DE9F0412D
:1024F000044600251E461746880404D405E03946E4
:102500002020B0476D1C641EF9D52846BDE8F08137
:102510002DE9F041044600251E469046C80301D52A
:10252000302700E02027880404D505E041463846DE
:10253000B0476D1C641EF9D52846BDE8F0810A68D5
:10254000531C0B60107070470FB480212DE9F843C5
:10255000DFF8BC804046FEF701FD07462D4E53E0F4
:102560001AA8FEF734FDDDE91A0141601A991C989A
:102570008860002508A8FEF783FB0122042140465D
:10258000FEF7F1FCFFF767F823A0FFF776F9FFF7F6
:1025900065F84FF47A7108A8FEF720FB002408A81C
:1025A000FEF7BEFA641C0544052CF8DB052095FBFC
:1025B000F0F42046FFF7CEF81CA0FFF75EF91E48A6
:1025C00000907568FEF75CFE1C49B0FBF1F00099C5
:1025D0004843009070680099401B8842FAD3B4F5D4
:1025E000FA7F11DA002204214046FEF7BCFC1AA84B
:1025F000FEF7EDFCDDE91A0141601A991C9888602C
:10260000BDE8F8035DF814FB002FA9D1F8E700003E
:1026100000040240001000E04761733A20202020AF
:102620002020202020202020000000002070706D3D
:10263000202020202000000080841E0040420F0047
:1026400010B52820FEF782F90B4C02212046FEF738
:1026500085FC50B95020FEF779F902212046FEF79B
:102660007DFC10B105490120087002212046FEF7CB
:1026700075FC0028F9D110BD0000024020000020A8
:102680002DE9F04104462DED028BFEF72BF9FFF703
:10269000D7FF00F065F9054600F062F9804600F0CA
:1026A0005FF9074600F05CF9064600F059F901466B
:1026B00008EB05003844321891427DD15748FEF7A7
:1026C00045F9E06D0A2806D1A06D04EB8000D0ED3D
:1026D000008A90ED0A8A00EE105AA06D5049B8EEBB
:1026E000401A00EE108A04EB8000B8EE400A80ED3C
:1026F000001A10EE100ADFED4B1A4B4ADFED4B0AC1
:102700009FED4B2A884202DA20EE210A08E010EE03
:10271000100A904202DA20EE200A01E020EE020ABE
:10272000A06D04EB800031EE000A80ED000A00EE9F
:10273000107AA06DB8EE401A00EE106A04EB80002B
:10274000B8EE400A80ED0A1A10EE100A884202DA4A
:1027500020EE210A08E010EE100A904202DA20EE84
:10276000200A01E020EE020AA06D04EB800031EEA9
:10277000000A80ED0A0AE06D0A280AD002DA00F1A8
:102780000100E065A06D00F10100A0650A282AD0D3
:102790002BE0D4ED140AB2EE040A20EE801AD4ED38
:1027A000150A60EE800A31EE681A70EEC80A84EDF0
:1027B000141AC4ED150A00E01CE0A06D04EB8000C3
:1027C000D0ED001A31EE211A84ED141AD0ED0A1A58
:1027D00070EEA10AC1EE001A80EE801AC4ED141A40
:1027E00084ED151ACEE70020A0650020BDEC028B19
:1027F000BDE8F081FFF738F8FEF72DFF0DA0FFF7D9
:102800003CF8FEF72BFF0DA0FFF737F80F48FEF757
:102810009DF8FFF729F84FF0FF30E7E720A1070008
:1028200000002041CDCCCC3D0000C8420AD7233C5B
:102830006F12833A4552524F5245000053656E73F2
:102840006F726520444854313100000040420F004F
:102850002DE9F0419FED230A054680ED140A80ED35
:10286000150A0020A865204CE8652046FEF76EF8A2
:10287000FEF7FAFFFEF7EFFE1CA0FEF7FEFF204674
:10288000FEF764F800241E4F0A2600BFFEF7ECFF97
:10289000FEF7E1FE15A0FEF7F0FFFEF7DFFE642075
:1028A000604390FBF6F0FEF761FF3846FEF74EF806
:1028B0002846FFF7E5FE641C0A2CE7DBFEF7D4FF91
:1028C000FEF7C9FE09A0FEF7D8FFFEF7C7FE642099
:1028D000FEF74CFF3846FEF739F82846BDE8F041D0
:1028E00000F010B80000000020A10700496E697ACE
:1028F00069616C697A7A617A696F6E6500000000BF
:1029000040420F00C16D0A2902D04FF0FF307047DE
:102910005FF0000100EB810290ED140AD2ED000A95
:10292000491C0A2930EE200A80ED140A90ED150AA0
:10293000D2ED0A0A30EE200A80ED150AEADBD0ED6E
:10294000140AB2EE040A80EE801A80ED141AD0ED5B
:10295000150A80EE801A80ED151A002070470000DD
:102960002DE9F0410024144F012602213846FEF7DC
:10297000F5FA0028F9D02820FDF7E8FF02213846B3
:10298000FEF7ECFA90B1C4F1070106FA01F0284312
:10299000C5B202213846FEF7E1FA0028F9D1641CDD
:1029A000E4B2082CE1D32846BDE8F081C4F1070069
:1029B00006FA00F08543ECE7000002408AB0FEF71B
:1029C00015FBFFF7BFF8FFF735F8FFF709F84FF4ED
:1029D00000635A1051100DF1140C48108CE80F00D0
:1029E000C20181010DF1040C1C4B40018CE80F0069
:1029F00040101B4D00902B46022201211948FEF782
:102A00004BFFFEF72FFEFDF77FFF1748FFF720FF74
:102A10008020FEF7BFF9144C14480C3C20600420C1
:102A2000606040F6FF70A0602046FEF7A7FA0E48EF
:102A30000C38FEF7CCFAD4E9000141602168A068A7
:102A400088600948FFF71CFE002204212846FEF793
:102A50008AFA054800F00CF8E9E70000000C024093
:102A600000040240001002409C00002000300040A2
:102A700070B50446FEF7F8FEFEF7EDFD15A0FEF773
:102A8000FCFEFEF7EBFD94ED140AFEF74DFE14A0DC
:102A9000FEF7F3FE134D2846FDF758FFFEF7E4FE60
:102AA000FEF7D9FD10A0FEF7E8FEFEF7D7FD94ED86
:102AB000150AFEF739FE10A0FEF7DFFEDF20FEF755
:102AC0007FFF0EA0FEF7D9FE2846BDE87040FDF757
:102AD0003DBF0000556D6964697461273A000000CC
:102AE0002025000080841E0054656D70657261743D
:102AF0007572613A000000002000000043000000F1
:102B000004480221016000214160816001460248C1
:102B1000FEF74CB9340000200000024005480221B5
:102B20000160012141600021C16001460248FEF7B9
:102B30003DB9000034000020000002400000000009
:102B4000000000000102030406070809000000005D
:102B500001020304742B0008000000203400000070
:102B60006C1C0008A82B000834000020CC040000D6
:102B70007C1C0008000000000000000000000000B5
:102B80000000000000000000000000000000000045
:102B90000000000000000000010000001000000024
:082BA000000000000024F40015
:040000050800018965
:00000001FF
